:020000040000fa
:04005c001403000089
:020000040000fa
:0400100014030000d5
:020000040000fa
:04025c001403000087
:020000040000fa
:0402100014030000d3
:020000040000fa
:04027400140300006f
:020000040000fa
:0403340014030000ae
:020000040000fa
:0403040014030000de
:020000040000fa
:0403080014030000da
:020000040000fa
:04035c001403000086
:020000040000fa
:040270001403000073
:020000040000fa
:0402380014030000ab
:020000040000fa
:040260001403000083
:020000040000fa
:04028800140300005b
:020000040000fa
:0402b800140300002b
:020000040000fa
:0402e0001403000003
:020000040000fa
:04031c0014030000c6
:020000040000fa
:0403d0001403000012
:020000040000fa
:04037800140300006a
:020000040000fa
:04037c001403000066
:020000040000fa
:04022c0014030000b7
:020000040000fa
:04023c0014030000a7
:020000040000fa
:0402bc001403000027
:020000040000fa
:0402c0001403000023
:020000040000fa
:0402c400140300001f
:020000040000fa
:0402c800140300001b
:020000040000fa
:0402280014030000bb
:020000040000fa
:04027800140300006b
:020000040000fa
:04029c001403000047
:020000040000fa
:0402fc0014030000e7
:020000040000fa
:0403000014030000e2
:020000040000fa
:0403b800140300002a
:020000040000fa
:0403bc001403000026
:020000040000fa
:0403c0001403000022
:020000040000fa
:0403c400140300001e
:020000040000fa
:0403c800140300001a
:020000040000fa
:0403cc001403000016
:020000040000fa
:0403d400140300000e
:020000040000fa
:0403d800140300000a
:020000040000fa
:0403dc001403000006
:020000040000fa
:0403e0001403000002
:020000040000fa
:0403e40014030000fe
:020000040000fa
:0403e80014030000fa
:020000040000fa
:0403ec0014030000f6
:020000040000fa
:0403f00014030000f2
:020000040000fa
:0403f40014030000ee
:020000040000fa
:0403f80014030000ea
:020000040000fa
:04026400140300007f
:020000040000fa
:04027c001403000067
:020000040000fa
:040280001403000063
:020000040000fa
:04028400140300005f
:020000040000fa
:0402b0001403000033
:020000040000fa
:0402b400140300002f
:020000040000fa
:0402d400140300000f
:020000040000fa
:0402d800140300000b
:020000040000fa
:0402e40014030000ff
:020000040000fa
:0402e80014030000fb
:020000040000fa
:0402f40014030000ef
:020000040000fa
:0402f80014030000eb
:020000040000fa
:04030c0014030000d6
:020000040000fa
:0403240014030000be
:020000040000fa
:0403280014030000ba
:020000040000fa
:0403380014030000aa
:020000040000fa
:04033c0014030000a6
:020000040000fa
:0403400014030000a2
:020000040000fa
:04034400140300009e
:020000040000fa
:04034c001403000096
:020000040000fa
:040350001403000092
:020000040000fa
:04035400140300008e
:020000040000fa
:04035800140300008a
:020000040000fa
:040360001403000082
:020000040000fa
:04036400140300007e
:020000040000fa
:04036800140300007a
:020000040000fa
:04039800140300004a
:020000040000fa
:04039c001403000046
:020000040000fa
:0403a0001403000042
:020000040000fa
:0403a400140300003e
:020000040000fa
:0403a800140300003a
:020000040000fa
:0403ac001403000036
:020000040000fa
:0403b0001403000032
:020000040000fa
:0403b400140300002e
:020000040000fa
:0403fc0014030000e6
:020000040000fa
:04034800140300009a
:020000040000fa
:04026c001403000077
:020000040000fa
:0402f00014030000f3
:020000040000fa
:0402180014030000cb
:020000040000fa
:0402300014030000b3
:020000040000fa
:0402400014030000a3
:020000040000fa
:04028c001403000057
:020000040000fa
:040290001403000053
:020000040000fa
:0402cc001403000017
:020000040000fa
:0402d0001403000013
:020000040000fa
:04020c0014030000d7
:020000040000fa
:0402dc001403000007
:020000040000fa
:0403200014030000c2
:020000040000fa
:0402080014030000db
:020000040000fa
:04021c0014030000c7
:020000040000fa
:0402200014030000c3
:020000040000fa
:0402240014030000bf
:020000040000fa
:04026800140300007b
:020000040000fa
:0402ec0014030000f7
:020000040000fa
:04024c001403000097
:020000040000fa
:0403100014030000d2
:020000040000fa
:040250001403000093
:020000040000fa
:0402a800140300003b
:020000040000fa
:0403140014030000ce
:020000040000fa
:0402ac001403000037
:020000040000fa
:040390001403000052
:020000040000fa
:0403180014030000ca
:020000040000fa
:04039400140300004e
:020000040000fa
:0402140014030000cf
:020000040000fa
:0402340014030000af
:020000040000fa
:04024400140300009f
:020000040000fa
:04024800140300009b
:020000040000fa
:04029400140300004f
:020000040000fa
:04029800140300004b
:020000040000fa
:04032c0014030000b6
:020000040000fa
:04025400140300008f
:020000040000fa
:04025800140300008b
:020000040000fa
:0403300014030000b2
:020000040000fa
:0402a0001403000043
:020000040000fa
:0402a400140300003f
:020000040000fa
:04036c001403000076
:020000040000fa
:040370001403000072
:020000040000fa
:04037400140300006e
:020000040000fa
:04038400140300005e
:020000040000fa
:04038800140300005a
:020000040000fa
:04038c001403000056
:020000040000fa
:040380001403000062
:020000040000fa
:040074001403000071
:020000040000fa
:0401340014030000b0
:020000040000fa
:0401040014030000e0
:020000040000fa
:0401080014030000dc
:020000040000fa
:04015c001403000088
:020000040000fa
:040070001403000075
:020000040000fa
:0400380014030000ad
:020000040000fa
:040060001403000085
:020000040000fa
:04008800140300005d
:020000040000fa
:0400b800140300002d
:020000040000fa
:0400e0001403000005
:020000040000fa
:04011c0014030000c8
:020000040000fa
:0401d0001403000014
:020000040000fa
:04017800140300006c
:020000040000fa
:04017c001403000068
:020000040000fa
:04002c0014030000b9
:020000040000fa
:04003c0014030000a9
:020000040000fa
:0400bc001403000029
:020000040000fa
:0400c0001403000025
:020000040000fa
:0400c4001403000021
:020000040000fa
:0400c800140300001d
:020000040000fa
:0400280014030000bd
:020000040000fa
:04007800140300006d
:020000040000fa
:04009c001403000049
:020000040000fa
:0400fc0014030000e9
:020000040000fa
:0401000014030000e4
:020000040000fa
:0401b800140300002c
:020000040000fa
:0401bc001403000028
:020000040000fa
:0401c0001403000024
:020000040000fa
:0401c4001403000020
:020000040000fa
:0401c800140300001c
:020000040000fa
:0401cc001403000018
:020000040000fa
:0401d4001403000010
:020000040000fa
:0401d800140300000c
:020000040000fa
:0401dc001403000008
:020000040000fa
:0401e0001403000004
:020000040000fa
:0401e4001403000000
:020000040000fa
:0401e80014030000fc
:020000040000fa
:0401ec0014030000f8
:020000040000fa
:0401f00014030000f4
:020000040000fa
:0401f40014030000f0
:020000040000fa
:0401f80014030000ec
:020000040000fa
:040064001403000081
:020000040000fa
:04007c001403000069
:020000040000fa
:040080001403000065
:020000040000fa
:040084001403000061
:020000040000fa
:0400b0001403000035
:020000040000fa
:0400b4001403000031
:020000040000fa
:0400d4001403000011
:020000040000fa
:0400d800140300000d
:020000040000fa
:0400e4001403000001
:020000040000fa
:0400e80014030000fd
:020000040000fa
:0400f40014030000f1
:020000040000fa
:0400f80014030000ed
:020000040000fa
:04010c0014030000d8
:020000040000fa
:0401240014030000c0
:020000040000fa
:0401280014030000bc
:020000040000fa
:0401380014030000ac
:020000040000fa
:04013c0014030000a8
:020000040000fa
:0401400014030000a4
:020000040000fa
:0401440014030000a0
:020000040000fa
:04014c001403000098
:020000040000fa
:040150001403000094
:020000040000fa
:040154001403000090
:020000040000fa
:04015800140300008c
:020000040000fa
:040160001403000084
:020000040000fa
:040164001403000080
:020000040000fa
:04016800140300007c
:020000040000fa
:04019800140300004c
:020000040000fa
:04019c001403000048
:020000040000fa
:0401a0001403000044
:020000040000fa
:0401a4001403000040
:020000040000fa
:0401a800140300003c
:020000040000fa
:0401ac001403000038
:020000040000fa
:0401b0001403000034
:020000040000fa
:0401b4001403000030
:020000040000fa
:0401fc0014030000e8
:020000040000fa
:04014800140300009c
:020000040000fa
:04006c001403000079
:020000040000fa
:0400f00014030000f5
:020000040000fa
:0400180014030000cd
:020000040000fa
:0400300014030000b5
:020000040000fa
:0400400014030000a5
:020000040000fa
:04008c001403000059
:020000040000fa
:040090001403000055
:020000040000fa
:0400cc001403000019
:020000040000fa
:0400d0001403000015
:020000040000fa
:04000c0014030000d9
:020000040000fa
:0400dc001403000009
:020000040000fa
:0401200014030000c4
:020000040000fa
:0400080014030000dd
:020000040000fa
:04001c0014030000c9
:020000040000fa
:0400200014030000c5
:020000040000fa
:0400240014030000c1
:020000040000fa
:04006800140300007d
:020000040000fa
:0400ec0014030000f9
:020000040000fa
:04004c001403000099
:020000040000fa
:0401100014030000d4
:020000040000fa
:040050001403000095
:020000040000fa
:0400a800140300003d
:020000040000fa
:0401140014030000d0
:020000040000fa
:0400ac001403000039
:020000040000fa
:040190001403000054
:020000040000fa
:0401180014030000cc
:020000040000fa
:040194001403000050
:020000040000fa
:0400140014030000d1
:020000040000fa
:0400340014030000b1
:020000040000fa
:0400440014030000a1
:020000040000fa
:04004800140300009d
:020000040000fa
:040094001403000051
:020000040000fa
:04009800140300004d
:020000040000fa
:04012c0014030000b8
:020000040000fa
:04005800140300008d
:020000040000fa
:0401300014030000b4
:020000040000fa
:0400a0001403000045
:020000040000fa
:0400a4001403000041
:020000040000fa
:04016c001403000078
:020000040000fa
:040170001403000074
:020000040000fa
:040174001403000070
:020000040000fa
:040184001403000060
:020000040000fa
:04018800140300005c
:020000040000fa
:04018c001403000058
:020000040000fa
:040180001403000064
:020000040000fa
:080000000002040000000000f2
:020000040000fa
:10040000cf0c21000e7f22000e01880000000000aa
:10041000000020000000e000020032000001200087
:10042000200288000e0007008094210001002000b7
:10043000810f700001003200220007000000200040
:100440000000e00002003200000002000000000096
:100450007e0e0200000000000040da000000fe00f6
:100460004440a900200020000000e000030032000a
:1004700010002000900188004440a8000000060001
:10048000f03fb1000180b10006003500ee03090025
:1004900000000000403fb1000180b100fbff3d00c3
:1004a0001000b000203fb0000200350000800900bd
:1004b00000000000000006008a1f78008b1f7800f3
:1004c00000000600a1028800800478000000eb0014
:1004d0001f003700e284440054a0b4009905ba001c
:1004e000e284440054a0b4009906ba00e2844400b7
:1004f00054a0b4000006eb00476fde00fd07b20019
:10050000ae018800636ce10003003a00eaff0700d7
:100510000000eb000e003700606ce10008003a00bc
:10052000004deb000a05e800020039003420ec0021
:100530000af0a0008b05e900f9ff3e000400370037
:100540006168e100010032000086eb000b0007004b
:1005500019c7ba001905ba000e04e00003003a00fa
:100560000a00e000dbff3a0000000600fe07b200d0
:10057000ae0288008a047800f5ff37000cd0a30093
:10058000e20f4d001c00390089027800354dba0099
:100590000a05e800020039003420ec000af0a0004f
:1005a0008b05e9000f003200254dba000a05e8006e
:1005b000020039003420ec000af0a0008b05e900ad
:1005c000080032000c00e0000600320015cdba0031
:1005d0000a05e800020039003420ec000af0a0000f
:1005e0008b05e9008984e80054a0b4000b00e0000a
:1005f000e2ff3a00000006009902ba00055d7800ab
:100600008b05e900f7ff3200c82ade00055d78009f
:100610008b05e900f3ff32000c00e000f1ff32002f
:1006200019ddba00eeff37000040da000000fe00de
:1006300080007800010178003104e000fdff3a00fd
:100640000000510000000600839f68000100e000e8
:1006500002003d0060001000e08018000300e00090
:1006600002003d0060011100e081190061010700f6
:100670004f00e00002003b0060001000e080180026
:1006800000000600889fbe008a9fbe003004420022
:10069000b0844a0030054b0090854b006000b100eb
:1006a0000898be000a90be00c10007000200310099
:1006b000680040001008e8004f05be004f04be006f
:1006c00000000600889fbe008a9fbe003004be0066
:1006d0002005be000418540005985c0006185d0053
:1006e00007985d0011002000b100070001003900eb
:1006f0008000eb00108810004f05be004f04be00c4
:10070000000006001200fa00889fbe008a9fbe000b
:100710008c9fbe00e0b79f00f1b79f0082bf9f0093
:1007200093bf9f000605be000404be000000eb005e
:10073000d0b79f00c0b79f00b0b79f00a0b79f0081
:1007400090b79f000006eb005fb19700cfb0970015
:10075000820141003fb097000200e00004003d002c
:10076000980007007e805700c6ff0700030037008f
:10077000940007007e805700d2ff0700dfb6970085
:100780000d00e0000c0035006fb29700ffb297003b
:100790000fbb97009fbb97001000200001002000b6
:1007a0006011b800000272008182720002037300bf
:1007b00083837300580007000c06e8000104200042
:1007c000810f5600e0ff3a000d00e00004003d00fc
:1007d0000802be000a03be007e805700a9ff070082
:1007e0005fa897000000e00005003a001fb29700e4
:1007f000afb297003fb39700cfb397004600070012
:100800006fb09700ffb097000fb997009fb997009e
:100810004f06be004f05be004f04be000080fa0028
:1008200000000600881f780018002000881f78004c
:10083000b4ff07008f87e9004f047800000006002e
:10084000801feb00afff07008f87e9000000060064
:10085000889fbe008a9fbe003d00070007003d0044
:1008600040000700180020004500070008003d0078
:100870002b0007000004eb00050037000004eb002c
:100880003f00070002003d0025000700180020007f
:10089000e4ff07000800e000010032003d0007000f
:1008a0004f05be004f04be0000000600889fbe003a
:1008b0008a9fbe008c1f78002500070008003d00bd
:1008c000280007001c0020000820e10009a8e10022
:1008d0000ab0e1000bb8e10007003d000500370059
:1008e0000006eb002600070003003d006044b8004e
:1008f0006055b8000c000700d1ff07000c00e000b5
:1009000001003200230007004f0678004f05be00ab
:100910004f04be00000006000800070000000600ab
:100920006044b8006055b8000402540085825c0041
:1009300006035d0087835d0000000600a4b79f00ea
:10094000b5b79f00c6b79f00d7b79f00000006004d
:10095000e00f5000e08f5800e00f5900e08f590081
:10096000000006006044b8006055b8000000540064
:1009700081805c0002015d0083815d000000060053
:10098000e00f5200e08f5a00e00f5b00e08f5b0049
:10099000000006006022b8006033b800000052007a
:1009a00081805a0002015b0083815b000000060029
:1009b0000440e10005c8e10006d0e10007d8e100ed
:1009c000000006004f09de0082817100b3b79f006e
:1009d0004f01de008180400082807000a1b79f003f
:1009e0008fb097004f09de00000040000200700049
:1009f00090b79f007fa897004f01de0081804000e4
:100a00008280700081b79f000d0007004f3ade0022
:100a10000000400004007000f0af9f0008000700d5
:100a20000402420085824a0006034b0087834b0084
:100a3000c2ff07000802be000a03be000000060055
:100a40002fb29700bfb297004fb39700dfb3970064
:100a5000000006004f89de00820178007500370033
:100a60006011b80083003700889fbe008a9fbe00d7
:100a70008c1f7800ae000700b500330003866c00c1
:100a80006450e1002e0032006420e10033003200a7
:100a90006150e1002f0032006120e100310032009e
:100aa00085855500eb07b0000900200008042000f0
:100ab000050037000804440089844c000a00310016
:100ac0000603430087834b000001530081815b00d4
:100ad000f8ff33000203be000800a0000804440031
:100ae00089844c00f6ff3900c639dd0083017300ac
:100af00001003200130020008904d1000884d300d3
:100b00000998a300050032000800a7000300a00018
:100b10008904d1000884d3008b05e8008904d10042
:100b20000884d3000001eb000281d2009800070086
:100b300001f0a1000cf0a70001f0a0008d0037002b
:100b40006420e1008f0032000801be000200be00f8
:100b5000f7ff37006120e1008a0032006000b80032
:100b6000f3ff37000000200001f82700f0ff3700f6
:100b70000001be00ac0007000470a70003f0a10054
:100b80006509b100160032000d0035006828e1004b
:100b900006003500f0ff2f00f1ff27000300e00002
:100ba00013003b0001002800000005000000400089
:100bb000818048008502e900fcff3a000800370008
:100bc000f88f420002003c008000eb0000000500ae
:100bd0008100d1000080d3008502e800fcff3a00cc
:100be0000300e00002003b0060001000e0801800fd
:100bf000000006006022b800060220000000d000bd
:100c00008180d2000482d2008582d2000000a00040
:100c10000202520083825a000300310002024200a5
:100c200083824a000000a1000603e900f3ff3a00b6
:100c300000000600881f7800030478000300e0002d
:100c400007003d0060001000e080180060011900fe
:100c5000e081190002003b0001f02d000300370085
:100c60000400070008f0a70001f0a0004f0478007e
:100c700000000600889fbe008a9fbe0000827000b0
:100c80000402710004827100260032000004be00dc
:100c90000200be006011b8006b0920009502200020
:100ca0000182cf000a0039000541b1000082cf0067
:100cb000070039000541b1000982cf000400390066
:100cc0000541b1000882cf00010039000541b100a3
:100cd00005425200120032000a003b00828171007e
:100ce000610164008100d1000080d3008984d300b9
:100cf0000884d3008b05e8000442e800f7ff3a00bf
:100d0000070037000804440089844c0000004800b4
:100d1000818048008b05e9000442e900f9ff3a00b0
:100d20001b0007004f05be004f04be000000060078
:100d30000004be003c0007000003be000405be0026
:100d40000200be0038000700844f75000000060056
:100d50000200be006450e100050036006420e1009e
:100d6000020036000968a30001003a000800be0036
:100d70000160a0004f0678004f05be004f04be0082
:100d800000000600f0ff2f00f1ff2700f9ff3700f9
:100d900081002000618055000b003d000b00200009
:100da00061fe2f000100e1001d003400828171000e
:100db000610164008904d1000884d3000000e800c8
:100dc000faff3a0071002000610064000300700027
:100dd000020060000900320061044400e0844c001d
:100de0000988a500050032008b05e8006808e100cd
:100df00002003a008904d1000884d300f20f2000d9
:100e00000258e10005003d00c75ddd00f907b200b2
:100e10008980750008007800000006000bf82700a4
:100e20008b00780000000500c70ade00f107b20061
:100e3000f50fb20008003200e1cf4200020032009c
:100e40000170a00024000500810f70000100320035
:100e50000408050044000500810f700002003a00fc
:100e6000140005008502e9000000400081c0480030
:0c0e7000fcff3b000170a0002400050006
:020000040000fa
:020000040002f8
:04affc003f3f0000d3
:020000040000fa
:020000040002f8
:04aff800bfb10000e5
:020000040000fa
:020000040002f8
:04aff400fff7000063
:020000040000fa
:020000040002f8
:04aff000fffb000063
:020000040000fa
:04005400b40c0000e8
:020000040000fa
:100e7c000200fa0080002000002888000225ef0004
:100e8c00f00c2000000f78009e00780041288800ac
:100e9c0001e5a8000345a8000080fa000000060048
:100eac000600fa00200798002e009000ddfd0700d8
:100ebc00100798000000eb00000f78000d003700c1
:100ecc001e007800ae0090000080400010407800ba
:100edc000000fb0020288800000000001128800082
:100eec0000102000008060000000e000fbff3200da
:100efc001e0fe8001e0090009e007800808f5000ae
:100f0c00efff35000080fa00000006000200fa0036
:100f1c0001e3a90010002000000f78000c23ef0063
:100f2c000e23ef00006220000018880080012100d1
:100f3c00101888000423ef000823ef009e007800af
:100f4c008118880001e3a8000080fa000000060068
:100f5c000200fa001de3a90070002000000f7800c9
:100f6c002823ef002a23ef0000432000e01888001c
:100f7c0080012100f01888002023ef002423ef00cb
:100f8c009e007800611988001de3a8000080fa001b
:100f9c00000006001e00fa00500f9800610f980028
:100fac0000002200400798007000200050079800b5
:100fbc007000200060079800de00900000c0200048
:100fcc00008040004400dd0070079800ee009000a7
:100fdc0000642000008040004500dd00000f9800f8
:100fec00a0002000100f98009e08900000502800d0
:100ffc0000804000200f980080072000300f9800e0
:10100c00be0890000060280000804000400f98004f
:10101c005e089000ce009000010878005e089000f9
:10102c000080e800ae089000010878005e0890008f
:10103c0064004000ce089000010878005e08900023
:10104c0066004000fe009000010878005e089000e9
:10105c00680040008e089000010878000000eb004a
:10106c00200798000000eb00200798000c003700c8
:10107c002e0090006500400000004000de0890004b
:10108c00008040002e01900001002d008280700035
:10109c00010878002e0090000000e800200798005e
:1010ac00ae009000f03f2000808f5000f0ff340025
:1010bc000000eb0010079800090037001e0090009c
:1010cc0000004000ee089000008040001116240043
:1010dc00010878001e0090000000e800100798003e
:1010ec009e00900060402000808f5000f3ff340081
:1010fc000000000040188000620060000000e0006a
:10110c00fcff3a005e089000100078006018880020
:10111c000000000040188000610060000000e0004a
:10112c00fcff32006e0890000080e800611880001f
:10113c000108780000202e0041002000cdfc0700a3
:10114c0010002000000f78001b003700000000008a
:10115c0040188000620060000000e000fcff3a00d4
:10116c001e00780000004000de0890000080400067
:10117c001000780060188800000000004018800003
:10118c00610060000000e000fcff32001e007800ef
:10119c000000e80000004000ee08900000804000d5
:1011ac006118800001087800001420000100200064
:1011bc00b0fc07001e0fe8001e007800e40f500082
:1011cc00e2ff340050002000000f78001b003700b5
:1011dc000000000040188000620060000000e00089
:1011ec00fcff3a001e00780000004000de08900072
:1011fc00008040001000780060188800000000009b
:10120c0040188000610060000000e000fcff32002c
:10121c001e0078000000e80000004000ee0890007e
:10122c000080400061188000010878000032200026
:10123c00010020008ffc07001e0fe800504020002a
:10124c009e007800808f5000e1ff34000000eb001e
:10125c0030079800200037003e009000000040004e
:10126c00ee08900000804000100078004800de007e
:10127c00004078000000fb002028880000000000df
:10128c001128800000102000008060000000e000a9
:10129c00fbff32003e00900000004000ee08900082
:1012ac000080400010007800004078000000fb0037
:1012bc002028880000000000112880000010200069
:1012cc00008060000000e000fbff32003e00900058
:1012dc000000e80030079800be009000604020003d
:1012ec00808f5000dcff34000080fa000000060004
:1012fc001600fa006007980071079800020f98001a
:10130c00130f9800240f98006e0090004f00dd0022
:10131c00000f78007e0090004e00dd001007980052
:10132c000e089000e10f500002003a00000022006d
:10133c00010037000000eb00200798001e08900009
:10134c004c00dd00300798002e0890004200dd00b4
:10135c00400798000000eb00500798001e0090001a
:10136c009e0070002e009000810070003e009000e6
:10137c00810070004e009000010070005007980032
:10138c005e0090000080fa00000006000a00fa00df
:10139c00300798004107980000002200000f7800e9
:1013ac00be009000005028000080400010079800fc
:1013bc00ce009000006028000080400020079800bc
:1013cc009e00780061188800000000004018800022
:1013dc00610060000000e000fcff3200601880003b
:1013ec00b042880000402d000103200021fc0700c2
:1013fc0000e82800601888000000000040188000f9
:10140c00610060000000e000fcff3200601880000a
:10141c00b04288009e009000611888000000000017
:10142c0040188000610060000000e000fcff32000a
:10143c0060188000b0428800ae00900061188800ef
:10144c000000000040188000610060000000e00017
:10145c00fcff320060188000b04288000080fa0067
:10146c00000006000800fa002007980031079800d9
:10147c00ae00900000c02000008040004400dd0061
:10148c00000f7800be009000006420000080400037
:10149c004500dd00100798009e0078006118880058
:1014ac000000000040188000610060000000e000b7
:1014bc00fcff320060188000b04288000028200039
:1014cc0001002000ebfb07009e00900061188800d3
:1014dc000000000040188000610060000000e00087
:1014ec00fcff320060188000b04288000028200009
:1014fc0001002000dffb07000080fa00000006005e
:10150c000400fa00100798009e00900000c0200014
:10151c00008040004400dd00000f78009e00780041
:10152c006118880000000000401880006100600015
:10153c000000e000fcff320060188000b042880020
:10154c000080fa00000006000400fa001007980062
:10155c009e00900000642000008040004500dd00eb
:10156c00000f78009e0078006118880000000000d1
:10157c0040188000610060000000e000fcff3200b9
:10158c0060188000b04288000080fa00000006005d
:10159c000200fa00000f780000c02d001e00700041
:1015ac006018880000000000401880006100600096
:1015bc000000e000fcff320060188000b0428800a0
:1015cc00001e200001002000aafb07000080fa008a
:1015dc00000006000000fa0000802d006018880052
:1015ec000000000040188000610060000000e00076
:1015fc00fcff320060188000b0428800001420000c
:10160c00010020009bfb070000c02d006018880023
:10161c000000000040188000610060000000e00045
:10162c00fcff320060188000b042880000142000db
:10163c00010020008ffb0700b04280004600de0056
:10164c00c04288000080fa00000006000200fa0088
:10165c00000f780000002d001e007000601888003c
:10166c000000000040188000610060000000e000f5
:10167c00fcff320060188000b0428800003c200063
:10168c00010020007bfb070000c02d0060188800c3
:10169c000000000040188000610060000000e000c5
:1016ac00fcff320060188000c0428800001e200041
:1016bc00010020006ffb07000080fa00000006000c
:1016cc000200fa00000f780000002d001e007000d0
:1016dc006018880000000000401880006100600065
:1016ec000000e000fcff320060188000b04288006f
:1016fc0000642000010020005efb070000c02d00ec
:10170c006018880000000000401880006100600034
:10171c000000e000fcff320060188000c04288002e
:10172c00001e20000100200052fb07000080fa0080
:10173c00000006000200fa00000f78001e0078007e
:10174c004880de00004078000000fb002028880064
:10175c0000000000112880000010200000806000b4
:10176c000000e000fbff32001e0078000040780013
:10177c000000fb00202888000000000011288000d9
:10178c0000102000008060000000e000fbff320031
:10179c000080fa00000006000000fa00001420008f
:1017ac000100200033fb07008ec1a900000a2000b5
:1017bc00010020002ffb07008ec1a8000064200050
:1017cc00010020002bfb07000080fa00000006003f
:1017dc000000fa0001088000f00b2000008160007e
:1017ec00600420007105200003102000804978005f
:1017fc008149780082497800211f8000f00f2c006d
:10180c00808060000030200001007000201f8800e4
:10181c00811d800000fc2f0000806000e000b30000
:10182c00801d8800a11d800000fc2f00008060003e
:10183c000030a000a01d8800f11e8000f00f2c00cd
:10184c00808060000070200001007000f01e880095
:10185c00d11e8000f00f2c000080600000b0a000b2
:10186c00d01e8800e11e8000f00f2c0080806000ec
:10187c000090200001007000e01e8800011f800015
:10188c0000fc2f0000806000a000b300001f880047
:10189c00011f8000f00f2c008080600000b0200041
:1018ac0001007000001f8800111f800000fc2f0039
:1018bc0000806000c000b300101f8800000880008a
:1018cc00000178000260a000600420007105200077
:1018dc000310200080497800814978008249780003
:1018ec0021e2a9007001a8008821ef009221ef00ed
:1018fc0030102400500c88008e21ef008ec1a800ff
:10190c000080fa00000006000000fa0081e0a80048
:10191c009540a9009520a9009b40a9008540a900ed
:10192c008520a9008b40a9009820a9009800a90047
:10193c009b60a9008820a9008800a9008b60a900e1
:10194c009580a9008580a9009560a9008560a900f3
:10195c009560a8000080fa00000006003600f80030
:10196c00809fbe00829fbe00849fbe00869fbe00eb
:10197c003200f8003400f80010002000a0018800ac
:10198c0010002000900188000000fa001028800050
:10199c00620060000000e000a50032000225a900f2
:1019ac00a800370052c8bf000004e00047003a000e
:1019bc00302880000040780050e8b70050c8bf00c5
:1019cc000080fb0031052000810f50002600320002
:1019dc0031052000810f50000a003c001105200049
:1019ec00810f50001400320011052000810f5000af
:1019fc0014003c0031042000810f500030003200f4
:101a0c008c00370051052000810f5000130032006c
:101a1c0051052000810f50000d003500610520009c
:101a2c00810f50001e00320071052000810f500004
:101a3c001f0032007f00370010c0b30052e8b7001f
:101a4c007c00370020c0b30052e8b70079003700a3
:101a5c0030c0b30052e8b7007600370040c0b30086
:101a6c0052e8b700730037006228ef0030072000ff
:101a7c0020288800000000001128800000102000a1
:101a8c00008060000000e000fbff32002045800079
:101a9c0028ff070090c0b30052e8b700650037007c
:101aac006228ef00a0c0b30052e8b7006100370015
:101abc0070c0b30052e8b700000000005d003700b2
:101acc0080c0b30052e8b7005a00370052c8bf00bc
:101adc00e64f500013003a00302880000040780098
:101aec0050e8b700018520009140780070c5b30024
:101afc0080cf500003003a0070c0b30052e8b7002a
:101b0c004c003700018520009140780030c4b300b0
:101b1c0080cf500047003a0080c0b30052e8b700b5
:101b2c004400370052c8bf00e74f50000a003a008b
:101b3c00302880000040780050e8b7000185200074
:101b4c009140780080c5b30080cf500039003a0036
:101b5c005268ef003700370052c8bf00e94f500001
:101b6c001b003a00302880000040780050e8b70095
:101b7c0050c8bf00e14f400002003a005268ef002d
:101b8c002c00370010438000018520009140780024
:101b9c008180fb0000014000408f200000004100cc
:101bac0001087800104380000000e8001043880012
:101bbc0011438000c03d2000808f50001d003a0072
:101bcc006228ef0050c0b30052e8b700190037008c
:101bdc0052c8bf00ea4f500016003a00302880006f
:101bec000040780050e8b7001043800001852000c9
:101bfc00914078008180fb0000014000808920002a
:101c0c000000410001087800104380000000e8004b
:101c1c001043880010438000e20f500005003a008a
:101c2c006228ef0060c0b30052e8b7000100370033
:101c3c000000000010288000610060000000e0003f
:101c4c0058ff3a008560a9000080fa003400f900c2
:101c5c003200f9004f03be004f02be004f01be0020
:101c6c004f00be003600f900004006000000fa00ec
:101c7c000221ef0002a1a80007e1a80031088000b2
:101c8c0000fc2f00008060000050a000300888008d
:101c9c006981a90069e1a900410b800000ff2f00b8
:101cac00008060003000b300400b88001000200062
:101cbc00500b88006c21ef006921a80069e1a80095
:101ccc006981a8000080fa00000006000000fa00fc
:101cdc00e6ff0700befe07000bff07008bfc0700aa
:101cec009bfc070062fc07000080fa000000060065
:101cfc000c00fa00889fbe00f4ff070052c8bf001a
:101d0c000080fb00e40f50001a023200e40f500078
:101d1c0007003c00e20f50005e003200e20f500062
:101d2c009d003c00e10f500008003200f3ff37002b
:101d3c00e60f5000a7023200e60f50006602350095
:101d4c00e70f5000ff033200ecff37008e41a80074
:101d5c0021032000300020008cfd07000002eb0066
:101d6c001300200012002000110020000000eb00e6
:101d7c005ffd0700401988000014200001002000be
:101d8c00bcf907008ec1a900000a20000100200048
:101d9c00b8f907008ec1a8000002eb001300200068
:101dac0012002000110020001000200050fd070040
:101dbc00401988000014200001002000adf9070034
:101dcc008ec1a900000a200001002000a9f907001b
:101ddc008ec1a8001100200010002000a1fd0700fa
:101dec000000eb00eafd07006028ef005828ef0028
:101dfc00050037000043800014fe070000438000fc
:101e0c000000e8000043880001438000f03f200000
:101e1c00808f500004003e00c142800000458000cd
:101e2c00808f5000f3ff3900004380000000e90070
:101e3c000043880001438000f00f2000808f500089
:101e4c000700360001438000901a2000808f50005c
:101e5c0003003e00100620002028880003003700f5
:101e6c00e0062000202888000000000011288000d7
:101e7c0000102000008060000000e000fbff32003a
:101e8c00204580002bfe07005268ef008e41a90010
:101e9c00fb0437008e41a80010002000f04288009f
:101eac002b003700f0428000a7fd07001000200037
:101ebc00e04288001e003700e042800090fd0700e1
:101ecc000000eb00b2fd07006028ef005828ef007f
:101edc000500370000438000dcfd07000043800054
:101eec000000e8000043880001438000f03f200020
:101efc00808f500004003e00c142800000458000ed
:101f0c00808f5000f3ff3900004380000000e9008f
:101f1c0000438800004380009dfd070000438000c3
:101f2c0004fe0700e042800063004000e0428800ad
:101f3c00e042800080007800e0448000808f5000f8
:101f4c00ddff3900f042800063004000f042880061
:101f5c00f042800080007800f0448000808f5000b8
:101f6c00d0ff39005268ef0020062000202888009e
:101f7c00000000001128800000102000008060008c
:101f8c000000e000fbff320020458000e9fd070067
:101f9c008e41a900ba0437008e41a8000020200011
:101fac00b044880000202000a04488009228ef0054
:101fbc00b0448000000278001300200012002000c2
:101fcc00110020000000eb00c9fc0700401988003c
:101fdc00f1fd07005e28ef0038003700f04280006a
:101fec0059fd07005c28ef002c003700e042800010
:101ffc0043fd0700f1428000300020000001780012
:10200c00110009008200d8008000fd00e10f500093
:10201c0008003a00e1428000300020008001780086
:10202c00110009008300d8008000fd00e10f500072
:10203c00170032000000eb0055fd07000000eb001c
:10204c009ffd0700c042800020079800003220004e
:10205c009bfd0700c042800030079800ae00900046
:10206c0030062000808f500009003c00be0090001c
:10207c00024580001045800000005100808f500008
:10208c0003003600904480000000e8009044880073
:10209c00e04280000000e800e0428800e04280005e
:1020ac0080007800e0448000808f5000cfff390022
:1020bc00f04280000000e800f0428800f04280000e
:1020cc0080007800f0448000808f5000c3ff3900fe
:1020dc00ae003700a04480000000d100a04488006e
:1020ec008e28ef00b1448000a044800000804000a6
:1020fc0000027800130020001200200011002000c4
:10210c000000eb007afc070040198800a2fd0700d4
:10211c005e28ef0038003700f04280000afd07000f
:10212c005c28ef002c003700e0428000f4fc070034
:10213c00f1428000300020000001780011000900fd
:10214c008200d8008000fd00e10f500008003a002a
:10215c00e14280003000200080017800110009006d
:10216c008300d8008000fd00e10f50001700320002
:10217c000000eb0006fd07000000eb0050fd07001f
:10218c00c042800020079800003220004cfd070060
:10219c00c042800030079800ae009000300620004e
:1021ac00808f500009003c00be009000024580006a
:1021bc001045800000005100808f50000300360055
:1021cc00704480000000e80070448800e042800009
:1021dc000000e800e0428800e042800080007800c7
:1021ec00e0448000808f5000cfff3900f042800027
:1021fc000000e800f0428800f04280008000780087
:10220c00f0448000808f5000c3ff39009028ef000d
:10221c00b1448000a044800000805000000278008f
:10222c001300200012002000110020000000eb0021
:10223c002ffc07004019880057fd07005e28ef00af
:10224c0038003700f0428000bffc07005c28ef002c
:10225c002c003700e0428000a9fc0700f14280000e
:10226c003000200000017800110009008200d80025
:10227c008000fd00e10f500008003a00e1428000b0
:10228c003000200080017800110009008300d80084
:10229c008000fd00e10f5000170032000000eb0041
:1022ac00bbfc07000000eb0005fd0700c0428000ee
:1022bc00200798000032200001fd0700c04280007a
:1022cc0030079800ae00900030062000808f500040
:1022dc0009003c00be0090000245800010458000c3
:1022ec0000005100808f50000300360080448000b5
:1022fc000000e80080448800e04280000000e80014
:10230c00e0428800e042800080007800e0448000d9
:10231c00808f5000cfff3900f04280000000e800b1
:10232c00f0428800f042800080007800f044800089
:10233c00808f5000c3ff39009144800070448000ae
:10234c00808f500007003100b1448000a044800011
:10235c0000804000b04488007044800090448800a5
:10236c000a0037009144800080448000808f500028
:10237c0006003100b1448000a04480000080500071
:10238c00b04488008044800090448800a0448000c1
:10239c00e40f50004fff3e00904480003043880013
:1023ac00b0448000000278001300200012002000ce
:1023bc00110020000000eb00cdfb07004019880045
:1023cc00f5fc07005e28ef0058003700f042800053
:1023dc005dfc07005c28ef004c003700e0428000f9
:1023ec0047fc0700f142800030002000000178001b
:1023fc00110009008200d8008000fd00e10f5000a0
:10240c000c003a00e142800030002000800178008e
:10241c00110009008300d8008000fd00e10f50007e
:10242c0004003a006bfc0700c042800000438800a7
:10243c002f0037000000eb0055fc07000000eb00fc
:10244c009ffc0700c042800020079800003220004b
:10245c009bfc0700c042800030079800ae00900043
:10246c0030062000808f500009003c00be00900018
:10247c00024580001045800000005100808f500004
:10248c0003003600f01f20000043880018003700be
:10249c00ae00900030062000808f500006003c00fb
:1024ac00be00900030062000808f500002003c00df
:1024bc006028ef000e003700ae009000024580004f
:1024cc001045800000005100808f5000080036003d
:1024dc00be009000024580001045800000005100b5
:1024ec00808f500002003600f03f2000004388002f
:1024fc000043800026fc0700004380008dfc070091
:10250c00e04280000000e800e0428800e0428000e9
:10251c0080007800e0448000808f5000afff3900cd
:10252c00f04280000000e800f0428800f042800099
:10253c0080007800f0448000808f5000a3ff3900a9
:10254c005268ef00400620002028880000000000a0
:10255c001128800000102000008060000000e000c6
:10256c00fbff32002045800072fc07008e41a90061
:10257c00430337008e41a8005e28ef00440037006b
:10258c00f0428000f0fb07005c28ef0038003700b9
:10259c00e0428000dafb07000efc0700c04280001e
:1025ac00000f7800f142800030002000000178001c
:1025bc00110009008200d8008000fd00e10f5000de
:1025cc0008003a00e14280003000200080017800d1
:1025dc00110009008300d8008000fd00e10f5000bd
:1025ec001c003200f01f20009e007800808f5000ed
:1025fc0018003a006028ef000000eb00100798006c
:10260c00070037000043800010fc0700c042800028
:10261c0010079800004380000000e8000043880089
:10262c0001438000f03f2000808f500006003e00e8
:10263c009e00900002458000104580000000510073
:10264c00808f5000efff3900004380000000e9004c
:10265c00000f78001e007800cdfb07001e007800ec
:10266c0034fc0700e04280000000e800e0428800f3
:10267c00e042800080007800e0448000808f5000b1
:10268c00c3ff3900f04280000000e800f0428800ef
:10269c00f042800080007800f0448000808f500071
:1026ac00b7ff39005268ef00500620002028880040
:1026bc000000000011288000001020000080600045
:1026cc000000e000fbff32002045800019fc0700f1
:1026dc008e41a900ea0237008e41a800004022007a
:1026ec00410f200063f707006228ef001000200064
:1026fc00f042880025003700f042800092fb070072
:10270c0010002000e042880018003700e0428000f2
:10271c007bfb07001043800080004000408f2000ae
:10272c000080400010007800c800dd0010438000dd
:10273c000000e80000014000408f20000000410034
:10274c0010007800010070000043880000438000f6
:10275c008ffb0700104380000080e80010438800c6
:10276c00e042800063004000e0428800e0428000cc
:10277c0080007800e0448000808f5000e3ff390037
:10278c00f042800063004000f0428800f04280007c
:10279c0080007800f0448000808f5000d6ff390014
:1027ac005268ef003006200020288800000000004e
:1027bc001128800000102000008060000000e00064
:1027cc00fbff320020458000dafb07008e41a90098
:1027dc00ab0237008e41a800f43f2000130020000c
:1027ec00120020001100200010002000c0fa070089
:1027fc004019880000142000010020001df707007c
:10280c008ec1a900000a20000100200019f7070062
:10281c008ec1a80000458000704388004a00370034
:10282c0052c8bf00e84f500011003a000002eb0004
:10283c0013002000120020001100200010002000c6
:10284c00abfa07004019880000142000010020009a
:10285c0008f707008ec1a900000a20000100200023
:10286c0004f707008ec1a8005268ef00330137004f
:10287c006a28ef006c28ef006828ef005002200057
:10288c00f042880023003700f04280002efb070046
:10289c00c0012000e042880017003700e0428000b1
:1028ac0017fb0700404380000000e800404388000d
:1028bc0048fb0700c04280000043880000438000b2
:1028cc0062fb0700c04280006101b80050438000e9
:1028dc006143800002004000838048005043880020
:1028ec00614388000043800029fb0700e042800020
:1028fc0063004000e0428800e14280004003200079
:10290c00808f5000e5ff3400f042800063004000ef
:10291c00f0428800f142800040032000808f50007c
:10292c00d9ff34005443800065438000404380004d
:10293c008000eb000001be000400be003ff7070062
:10294c00000078007043880071438000404580008f
:10295c00808f5000b2ff3e006006200020288800c7
:10296c000000000011288000001020000080600092
:10297c000000e000fbff3200204580006dfb0700eb
:10298c005268ef008e41a900848720006000b800d7
:10299c006011b800009abe000292be00e40037003d
:1029ac00204380000000e8002043880052c8bf008c
:1029bc00e84f500011003a000002eb001300200019
:1029cc0012002000110020001000200048fa07001f
:1029dc00401988000014200001002000a5f6070013
:1029ec008ec1a900000a200001002000a1f60700fa
:1029fc008ec1a8005268ef00d00037008e41a800ad
:102a0c0000402200410f20009af607006a28ef00d0
:102a1c006c28ef006828ef0050022000f04288007c
:102a2c0023003700f0428000c7fa0700c0012000e5
:102a3c00e042880017003700e0428000b0fa07003f
:102a4c00404380000000e80040438800e1fa0700a2
:102a5c00c04280000043880000438000fbfa07005e
:102a6c00c04280006101b800504380006143800087
:102a7c000200400083804800504388006143880076
:102a8c0000438000c2fa0700e0428000630040006f
:102a9c00e0428800e142800040032000808f50001b
:102aac00e5ff3400f042800063004000f0428800f3
:102abc00f142800040032000808f5000d9ff340089
:102acc005443800065438000404380008000eb004d
:102adc000001be000400be00d8f60700000078001c
:102aec007043880071438000404580000080500096
:102afc00b043880051458000b04380000088b90085
:102b0c0000007800804388003145800020002000c0
:102b1c0000017800110009008200d80080007800c4
:102b2c0080438000808f500007003d0031458000bd
:102b3c002000200080017800110009008300d800db
:102b4c0080438800100037003145800020002000b1
:102b5c0000017800110009008200d8008080ea0092
:102b6c0080438000808f5000070034003145800086
:102b7c002000200080017800110009008300d8009b
:102b8c000080ea0080438800b04380006102b900f5
:102b9c00612bb900808720005001be004000be00b0
:102bac000000420081804a0002014b0083814b00ef
:102bbc0080007800604580000088b9000000780033
:102bcc0090438800314580002000200000017800ef
:102bdc00110009008200d80080007800904380002a
:102bec00808f500007003d00314580002000200000
:102bfc0080017800110009008300d8009043880000
:102c0c0010003700314580002000200000017800c2
:102c1c00110009008200d8008080ea0090438000f7
:102c2c00808f5000070034003145800020002000c8
:102c3c0080017800110009008300d8000080ea00b0
:102c4c0090438800814380009043800000804000c6
:102c5c005007980032458000400020008001780029
:102c6c00110009000301d800de0090000080400034
:102c7c00404488004144800030458000808f5000e3
:102c8c0003003400304580004044880004003700c5
:102c9c00404480000000e00001003d008828ef0067
:102cac00b04380006102b900612bb900808720001d
:102cbc005001be004000be000000420081804a006e
:102ccc0002014b0083814b0084872000009abe00d8
:102cdc000292be00404480000002780013002000e5
:102cec0012002000110020001000200080f90700c5
:102cfc00401988000014200001002000ddf50700b9
:102d0c008ec1a900000a200001002000d9f507009f
:102d1c008ec1a80020438000f40f50000100360043
:102d2c008e41a90000402200410f2000d1f5070080
:102d3c0052c8bf00e74f500019ff3a008e41a9005e
:102d4c004f013700808720005001be004000be00bc
:102d5c0034002000050020006033b800b9f60700ed
:102d6c0084872000009abe000292be00b04480000e
:102d7c002003b10000027800130020001200200094
:102d8c00110020000000eb0059f9070040198800e1
:102d9c000014200001002000b6f507008ec1a90028
:102dac00000a200001002000b2f507008ec1a80027
:102dbc004044800000027800130020001200200024
:102dcc00110020001000200049f90700401988006c
:102ddc000014200001002000a6f507008ec1a900f8
:102dec00000a200001002000a2f507008ec1a800f7
:102dfc001b01370052c8bf000004e0001c01320068
:102e0c008e41a8006228ef005e28ef006d003700ad
:102e1c00f0428000ccf907005c28ef00610037001d
:102e2c00e0428000b6f90700f1428000300020003b
:102e3c0000017800110009008200d8008000fd001c
:102e4c00e10f500008003a00e14280003000200001
:102e5c0080017800110009008300d8008000fd007b
:102e6c00e10f500048003200daf90700c042800040
:102e7c0000438800004380000000e0003f00320067
:102e8c0001438000f03f2000808f50003b00320057
:102e9c0000438000edf907000145800010458000db
:102eac0080805000c0428000808f50001800360097
:102ebc0001438000b03f2000808f500014003e0082
:102ecc0005003700004380000000e8000043880044
:102edc0000438000ddf907000145800010458000ab
:102eec0080805000c0428000808f5000040036006b
:102efc0001438000b03f2000808f5000f1ff36006e
:102f0c00004380000000e900004388001b003700ec
:102f1c00014580001045800080804000c042800048
:102f2c00808f50001500310000438000e40f5000ea
:102f3c001200360005003700004380000000e90055
:102f4c000043880000438000c0f907000145800061
:102f5c001045800080804000c0428000808f50006f
:102f6c000300310000438000e40f5000f2ff3e00ec
:102f7c00004380000000e80000438800004380000c
:102f8c0083f9070002003700f03f2000004388005f
:102f9c0000438000e7f90700e04280000000e800f1
:102fac00e0428800e042800080007800e04480002d
:102fbc00808f50009aff3900f04280000000e8003a
:102fcc00f0428800f042800080007800f0448000dd
:102fdc00808f50008eff3900b0448000d5f9070077
:102fec008e41a9000000240021f4200021f50700e7
:102ffc006a28ef006c28ef006828ef000000eb0057
:10300c004007980050022000f0428800260037004c
:10301c00f04280004cf90700c0012000e04288001b
:10302c001a003700e042800035f907004043800069
:10303c000000e8004043880066f90700c0428000a9
:10304c000043880000438000650050007ff90700b2
:10305c00c0428000400798004e0090006101b9000a
:10306c005043800061438000020040008380480090
:10307c0050438800614388000043800044f90700f6
:10308c00e042800063004000e0428800e1428000a2
:10309c0040032000808f5000e2ff3400f04280009b
:1030ac0063004000f0428800f142800040032000a1
:1030bc00808f5000d6ff3400504380006143800065
:1030cc0061f607000004be00404380008000eb0066
:1030dc0060f607000001be000800be005ff60700a6
:1030ec00a0f6070000007800704388007043800051
:1030fc0090f90700204580008ef90700714380008d
:10310c004045800000805000b0438800714580002d
:10311c00b04380000088b90000007800804388002c
:10312c00b04380006102b900612bb9008087200098
:10313c005001be004000be000000420081804a00e9
:10314c0002014b0083814b00800078008045800099
:10315c000088b9000000780090438800b0438000dc
:10316c006102b900612bb900008820005001be003b
:10317c004000be000000520081805a0002015b003a
:10318c0083815b0080007800904580000088b90046
:10319c0000007800a04388008043800040448800f1
:1031ac0041448000801b2000808f500003003400bd
:1031bc00801b2000404488000600370041448000fa
:1031cc00301a2000808f500002003c00401a200072
:1031dc0040448800b04380006102b900612bb90003
:1031ec00808720005001be004000be00000042005d
:1031fc0081804a0002014b0083814b0084872000b0
:10320c00009abe000292be00b0438000cf80de0068
:10321c006109b90004882000009abe000292be0029
:10322c0040448000000278001300200012002000af
:10323c0011002000100020002df807004019880014
:10324c0000142000010020008af407008ec1a900a0
:10325c00000a20000100200086f407008ec1a8009f
:10326c0052c8bf00e74f5000e2fe320001003700a9
:10327c00000000005268ef008e41a9000000000021
:04328c009efa37006f
:020000040000fa
:10329000b40800001808000080000000500800007a
:1032a0004c000000800000009c0800001800000096
:1032b000820000004e00380000da02001400ff0017
:1032c000ff5802008c000400000a00000200060003
:0832d0000001000000000000f5
:00000001FF
