:020000040000fa
:04005c001403000089
:020000040000fa
:0400100014030000d5
:020000040000fa
:04025c001403000087
:020000040000fa
:0402100014030000d3
:020000040000fa
:04027400140300006f
:020000040000fa
:0403340014030000ae
:020000040000fa
:0403040014030000de
:020000040000fa
:0403080014030000da
:020000040000fa
:04035c001403000086
:020000040000fa
:040270001403000073
:020000040000fa
:0402380014030000ab
:020000040000fa
:040260001403000083
:020000040000fa
:04028800140300005b
:020000040000fa
:0402b800140300002b
:020000040000fa
:0402e0001403000003
:020000040000fa
:04031c0014030000c6
:020000040000fa
:0403d0001403000012
:020000040000fa
:04037800140300006a
:020000040000fa
:04037c001403000066
:020000040000fa
:04022c0014030000b7
:020000040000fa
:04023c0014030000a7
:020000040000fa
:0402bc001403000027
:020000040000fa
:0402c0001403000023
:020000040000fa
:0402c400140300001f
:020000040000fa
:0402c800140300001b
:020000040000fa
:0402280014030000bb
:020000040000fa
:04027800140300006b
:020000040000fa
:04029c001403000047
:020000040000fa
:0402fc0014030000e7
:020000040000fa
:0403000014030000e2
:020000040000fa
:0403b800140300002a
:020000040000fa
:0403bc001403000026
:020000040000fa
:0403c0001403000022
:020000040000fa
:0403c400140300001e
:020000040000fa
:0403c800140300001a
:020000040000fa
:0403cc001403000016
:020000040000fa
:0403d400140300000e
:020000040000fa
:0403d800140300000a
:020000040000fa
:0403dc001403000006
:020000040000fa
:0403e0001403000002
:020000040000fa
:0403e40014030000fe
:020000040000fa
:0403e80014030000fa
:020000040000fa
:0403ec0014030000f6
:020000040000fa
:0403f00014030000f2
:020000040000fa
:0403f40014030000ee
:020000040000fa
:0403f80014030000ea
:020000040000fa
:04026400140300007f
:020000040000fa
:04027c001403000067
:020000040000fa
:040280001403000063
:020000040000fa
:04028400140300005f
:020000040000fa
:0402b0001403000033
:020000040000fa
:0402b400140300002f
:020000040000fa
:0402d400140300000f
:020000040000fa
:0402d800140300000b
:020000040000fa
:0402e40014030000ff
:020000040000fa
:0402e80014030000fb
:020000040000fa
:0402f40014030000ef
:020000040000fa
:0402f80014030000eb
:020000040000fa
:04030c0014030000d6
:020000040000fa
:0403240014030000be
:020000040000fa
:0403280014030000ba
:020000040000fa
:0403380014030000aa
:020000040000fa
:04033c0014030000a6
:020000040000fa
:0403400014030000a2
:020000040000fa
:04034400140300009e
:020000040000fa
:04034c001403000096
:020000040000fa
:040350001403000092
:020000040000fa
:04035400140300008e
:020000040000fa
:04035800140300008a
:020000040000fa
:040360001403000082
:020000040000fa
:04036400140300007e
:020000040000fa
:04036800140300007a
:020000040000fa
:04039800140300004a
:020000040000fa
:04039c001403000046
:020000040000fa
:0403a0001403000042
:020000040000fa
:0403a400140300003e
:020000040000fa
:0403a800140300003a
:020000040000fa
:0403ac001403000036
:020000040000fa
:0403b0001403000032
:020000040000fa
:0403b400140300002e
:020000040000fa
:0403fc0014030000e6
:020000040000fa
:04034800140300009a
:020000040000fa
:04026c001403000077
:020000040000fa
:0402f00014030000f3
:020000040000fa
:0402180014030000cb
:020000040000fa
:0402300014030000b3
:020000040000fa
:0402400014030000a3
:020000040000fa
:04028c001403000057
:020000040000fa
:040290001403000053
:020000040000fa
:0402cc001403000017
:020000040000fa
:0402d0001403000013
:020000040000fa
:04020c0014030000d7
:020000040000fa
:0402dc001403000007
:020000040000fa
:0403200014030000c2
:020000040000fa
:0402080014030000db
:020000040000fa
:04021c0014030000c7
:020000040000fa
:0402200014030000c3
:020000040000fa
:0402240014030000bf
:020000040000fa
:04026800140300007b
:020000040000fa
:0402ec0014030000f7
:020000040000fa
:04024c001403000097
:020000040000fa
:0403100014030000d2
:020000040000fa
:040250001403000093
:020000040000fa
:0402a800140300003b
:020000040000fa
:0403140014030000ce
:020000040000fa
:0402ac001403000037
:020000040000fa
:040390001403000052
:020000040000fa
:0403180014030000ca
:020000040000fa
:04039400140300004e
:020000040000fa
:0402140014030000cf
:020000040000fa
:0402340014030000af
:020000040000fa
:04024400140300009f
:020000040000fa
:04024800140300009b
:020000040000fa
:04029400140300004f
:020000040000fa
:04029800140300004b
:020000040000fa
:04032c0014030000b6
:020000040000fa
:04025400140300008f
:020000040000fa
:04025800140300008b
:020000040000fa
:0403300014030000b2
:020000040000fa
:0402a0001403000043
:020000040000fa
:0402a400140300003f
:020000040000fa
:04036c001403000076
:020000040000fa
:040370001403000072
:020000040000fa
:04037400140300006e
:020000040000fa
:04038400140300005e
:020000040000fa
:04038800140300005a
:020000040000fa
:04038c001403000056
:020000040000fa
:040380001403000062
:020000040000fa
:040074001403000071
:020000040000fa
:0401340014030000b0
:020000040000fa
:0401040014030000e0
:020000040000fa
:0401080014030000dc
:020000040000fa
:04015c001403000088
:020000040000fa
:040070001403000075
:020000040000fa
:0400380014030000ad
:020000040000fa
:040060001403000085
:020000040000fa
:04008800140300005d
:020000040000fa
:0400b800140300002d
:020000040000fa
:0400e0001403000005
:020000040000fa
:04011c0014030000c8
:020000040000fa
:0401d0001403000014
:020000040000fa
:04017800140300006c
:020000040000fa
:04017c001403000068
:020000040000fa
:04002c0014030000b9
:020000040000fa
:04003c0014030000a9
:020000040000fa
:0400bc001403000029
:020000040000fa
:0400c0001403000025
:020000040000fa
:0400c4001403000021
:020000040000fa
:0400c800140300001d
:020000040000fa
:0400280014030000bd
:020000040000fa
:04007800140300006d
:020000040000fa
:04009c001403000049
:020000040000fa
:0400fc0014030000e9
:020000040000fa
:0401000014030000e4
:020000040000fa
:0401b800140300002c
:020000040000fa
:0401bc001403000028
:020000040000fa
:0401c0001403000024
:020000040000fa
:0401c4001403000020
:020000040000fa
:0401c800140300001c
:020000040000fa
:0401cc001403000018
:020000040000fa
:0401d4001403000010
:020000040000fa
:0401d800140300000c
:020000040000fa
:0401dc001403000008
:020000040000fa
:0401e0001403000004
:020000040000fa
:0401e4001403000000
:020000040000fa
:0401e80014030000fc
:020000040000fa
:0401ec0014030000f8
:020000040000fa
:0401f00014030000f4
:020000040000fa
:0401f40014030000f0
:020000040000fa
:0401f80014030000ec
:020000040000fa
:040064001403000081
:020000040000fa
:04007c001403000069
:020000040000fa
:040080001403000065
:020000040000fa
:040084001403000061
:020000040000fa
:0400b0001403000035
:020000040000fa
:0400b4001403000031
:020000040000fa
:0400d4001403000011
:020000040000fa
:0400d800140300000d
:020000040000fa
:0400e4001403000001
:020000040000fa
:0400e80014030000fd
:020000040000fa
:0400f40014030000f1
:020000040000fa
:0400f80014030000ed
:020000040000fa
:04010c0014030000d8
:020000040000fa
:0401240014030000c0
:020000040000fa
:0401280014030000bc
:020000040000fa
:0401380014030000ac
:020000040000fa
:04013c0014030000a8
:020000040000fa
:0401400014030000a4
:020000040000fa
:0401440014030000a0
:020000040000fa
:04014c001403000098
:020000040000fa
:040150001403000094
:020000040000fa
:040154001403000090
:020000040000fa
:04015800140300008c
:020000040000fa
:040160001403000084
:020000040000fa
:040164001403000080
:020000040000fa
:04016800140300007c
:020000040000fa
:04019800140300004c
:020000040000fa
:04019c001403000048
:020000040000fa
:0401a0001403000044
:020000040000fa
:0401a4001403000040
:020000040000fa
:0401a800140300003c
:020000040000fa
:0401ac001403000038
:020000040000fa
:0401b0001403000034
:020000040000fa
:0401b4001403000030
:020000040000fa
:0401fc0014030000e8
:020000040000fa
:04014800140300009c
:020000040000fa
:04006c001403000079
:020000040000fa
:0400f00014030000f5
:020000040000fa
:0400180014030000cd
:020000040000fa
:0400300014030000b5
:020000040000fa
:0400400014030000a5
:020000040000fa
:04008c001403000059
:020000040000fa
:040090001403000055
:020000040000fa
:0400cc001403000019
:020000040000fa
:0400d0001403000015
:020000040000fa
:04000c0014030000d9
:020000040000fa
:0400dc001403000009
:020000040000fa
:0401200014030000c4
:020000040000fa
:0400080014030000dd
:020000040000fa
:04001c0014030000c9
:020000040000fa
:0400200014030000c5
:020000040000fa
:0400240014030000c1
:020000040000fa
:04006800140300007d
:020000040000fa
:0400ec0014030000f9
:020000040000fa
:04004c001403000099
:020000040000fa
:0401100014030000d4
:020000040000fa
:040050001403000095
:020000040000fa
:0400a800140300003d
:020000040000fa
:0401140014030000d0
:020000040000fa
:0400ac001403000039
:020000040000fa
:040190001403000054
:020000040000fa
:0401180014030000cc
:020000040000fa
:040194001403000050
:020000040000fa
:0400140014030000d1
:020000040000fa
:0400340014030000b1
:020000040000fa
:0400440014030000a1
:020000040000fa
:04004800140300009d
:020000040000fa
:040094001403000051
:020000040000fa
:04009800140300004d
:020000040000fa
:04012c0014030000b8
:020000040000fa
:040054001403000091
:020000040000fa
:04005800140300008d
:020000040000fa
:0401300014030000b4
:020000040000fa
:0400a0001403000045
:020000040000fa
:0400a4001403000041
:020000040000fa
:04016c001403000078
:020000040000fa
:040170001403000074
:020000040000fa
:040174001403000070
:020000040000fa
:040184001403000060
:020000040000fa
:04018800140300005c
:020000040000fa
:04018c001403000058
:020000040000fa
:040180001403000064
:020000040000fa
:080000000002040000000000f2
:020000040000fa
:100400002f8d21000e7f22000e01880000000000c9
:10041000000020000000e000020032000001200087
:10042000200288000e000700a074200001002000b8
:10043000810f700001003200220007000000200040
:100440000000e00002003200000002000000000096
:1004500010070200000000000040da000000fe006b
:100460004440a900200020000000e000030032000a
:1004700010002000900188004440a8000000060001
:10048000f03fb1000180b10006003500ee03090025
:1004900000000000403fb1000180b100fbff3d00c3
:1004a0001000b000203fb0000200350000800900bd
:1004b00000000000000006008a1f78008b1f7800f3
:1004c00000000600a1028800800478000000eb0014
:1004d0001f003700e284440054a0b4009905ba001c
:1004e000e284440054a0b4009906ba00e2844400b7
:1004f00054a0b4000006eb00476fde00fd07b20019
:10050000ae018800636ce10003003a00eaff0700d7
:100510000000eb000e003700606ce10008003a00bc
:10052000004deb000a05e800020039003420ec0021
:100530000af0a0008b05e900f9ff3e000400370037
:100540006168e100010032000086eb000b0007004b
:1005500019c7ba001905ba000e04e00003003a00fa
:100560000a00e000dbff3a0000000600fe07b200d0
:10057000ae0288008a047800f5ff37000cd0a30093
:10058000e20f4d001c00390089027800354dba0099
:100590000a05e800020039003420ec000af0a0004f
:1005a0008b05e9000f003200254dba000a05e8006e
:1005b000020039003420ec000af0a0008b05e900ad
:1005c000080032000c00e0000600320015cdba0031
:1005d0000a05e800020039003420ec000af0a0000f
:1005e0008b05e9008984e80054a0b4000b00e0000a
:1005f000e2ff3a00000006009902ba00055d7800ab
:100600008b05e900f7ff3200c82ade00055d78009f
:100610008b05e900f3ff32000c00e000f1ff32002f
:1006200019ddba00eeff37000040da000000fe00de
:1006300080007800010178003104e000fdff3a00fd
:0806400000005100000006005b
:020000040000fa
:020000040002f8
:04affc00ff3f000013
:020000040000fa
:020000040002f8
:04aff800bfb10000e5
:020000040000fa
:020000040002f8
:04aff400fff7000063
:020000040000fa
:020000040002f8
:04aff000fffb000063
:020000040000fa
:100648000200fa0080002000002888000225ef0040
:1006580040042000000f78009e00780041288800a0
:1006680001e5a8000345a8000080fa000000060084
:100678000600fa00200798002e009000eaff070005
:10068800100798000000eb00000f78000d003700fd
:100698001e007800ae0090000080400010407800f6
:1006a8000000fb00202888000000000011288000be
:1006b80000102000008060000000e000fbff320016
:1006c8001e0fe8001e0090009e007800808f5000ea
:1006d800efff35000080fa00000006000200fa0073
:1006e80001e3a90010002000000f78000c23ef00a0
:1006f8000e23ef000042200000188800800121002e
:10070800101888000423ef000823ef009e007800eb
:100718008118880001e3a8000080fa0000000600a4
:100728000200fa001de3a90070002000000f780005
:100738002823ef002a23ef0000432000e018880058
:1007480080012100f01888002023ef002423ef0007
:100758009e007800611988001de3a8000080fa0057
:10076800000006001e00fa00500f9800610f980064
:1007780000002200400798007000200050079800f1
:100788007000200060079800de00900000c0200084
:10079800008040004400dd0070079800ee009000e3
:1007a80000642000008040004500dd00000f980034
:1007b800a0002000100f98009e089000005028000c
:1007c80000804000200f980080072000300f98001c
:1007d800be0890000060280000804000400f98008c
:1007e8005e089000ce009000010878005e08900036
:1007f8000080e800ae089000010878005e089000cc
:1008080064004000ce089000010878005e0890005f
:1008180066004000fe009000010878005e08900025
:10082800680040008e089000010878000000eb0086
:10083800200798000000eb00200798000c00370004
:100848002e0090006500400000004000de08900087
:10085800008040002e01900001002d008280700071
:10086800010878002e0090000000e800200798009a
:10087800ae009000f03f2000808f5000f0ff340061
:100888000000eb0010079800090037001e009000d8
:1008980000004000ee089000008040008080eb00df
:1008a800010878001e0090000000e800100798007a
:1008b8009e00900060402000808f5000f3ff3400bd
:1008c800611880006e0890000108780000000000a0
:1008d80040188000620060000000e000fcff3a0061
:1008e8005e08900010007800601888000000000082
:1008f80040188000610060000000e000fcff32004a
:100908006e0890000080e8006118800001087800f7
:1009180000202e0041002000d7fe07001000200014
:10092800000f78001b00370000000000401880000e
:10093800620060000000e000fcff3a001e00780042
:1009480000004000de0890000080400010007800a1
:1009580060188800000000004018800061006000f6
:100968000000e000fcff32001e0078000000e800f4
:1009780000004000ee0890000080400061188000f0
:10098800010878000014200001002000bafe0700ca
:100998001e0fe8001e007800e40f5000e2ff34004c
:1009a80050002000000f78001b00370000000000f6
:1009b80040188000620060000000e000fcff3a0080
:1009c8001e00780000004000de0890000080400013
:1009d80010007800601888000000000040188000af
:1009e800610060000000e000fcff32001e0078009b
:1009f8000000e80000004000ee0890000080400081
:100a080061188000010878000032200001002000f1
:100a180099fe07001e0fe800504020009e00780055
:100a2800808f5000e1ff34000000eb003007980091
:100a3800200037003e00900000004000ee089000c3
:100a480000804000100078004800de000040780078
:100a58000000fb002028880000000000112880000a
:100a680000102000008060000000e000fbff320062
:100a78003e00900000004000ee089000008040001a
:100a880010007800004078000000fb002028880053
:100a98000000000011288000001020000080600085
:100aa8000000e000fbff32003e0090000000e8007c
:100ab80030079800be00900060402000808f5000f2
:100ac800dcff34000080fa00000006001600fa007f
:100ad8006007980071079800020f9800130f98009c
:100ae800240f98006e0090004f00dd00000f780082
:100af8007e0090004e00dd00100798000e08900060
:100b0800e10f500002003a00000022000100370007
:100b18000000eb00200798001e0890004c00dd0044
:100b2800300798002e0890004200dd00400798002a
:100b38000000eb00500798001e0090009e00700017
:100b48002e009000810070003e009000810070002f
:100b58004e0090000100700050079800de009000e1
:100b6800914288005e0090000080fa0000000600b4
:100b78001600fa006007980071079800020f9800a5
:100b8800130f9800240f98006e0090004f00dd00ae
:100b9800000f78007e0090004e00dd0010079800de
:100ba8000e089000e10f500002003a0000002200f9
:100bb800010037000000eb00200798001e08900095
:100bc8004c00dd0030079800ae08900041079800ff
:100bd8001e0090009e0070002e00900081007000a2
:100be8003e009000810070004e00900001007000ef
:100bf80050079800de00900091428800de009000c7
:100c0800411988000080fa00000006000000fa0080
:100c180001088000f00b20000081600060042000c3
:100c28007105200003102000804978008149780070
:100c380082497800211f8000f00f2c00808060001e
:100c48000030200001007000201f8800811d8000f6
:100c580000fc2f0000806000e000b300801d8800c9
:100c6800a11d800000fc2f00008060000030a00063
:100c7800a01d8800f11e8000f00f2c00808060000d
:100c88000070200001007000f01e8800d11e800056
:100c9800f00f2c000080600000b0a000d01e88007b
:100ca800e11e8000f00f2c00808060000090200082
:100cb80001007000e01e8800011f800000fc2f006a
:100cc80000806000a000b300001f8800011f8000a2
:100cd800f00f2c008080600000b020000100700040
:100ce800001f8800111f800000fc2f00008060009a
:100cf800c000b300101f88000008800000017800c1
:100d08000260a0006004200071052000031020008c
:100d180080497800814978008249780021e2a90059
:100d28007001a8008821ef009221ef003010240004
:100d3800500c88008e21ef008ec1a8000080fa00b8
:100d4800000006000000fa0081e0a8009540a90014
:100d58009520a9009b40a9008540a9008520a900ed
:100d68008b40a9009820a9009800a9009b60a900c1
:100d78008820a9008800a9008b60a9009580a90097
:100d88008580a9009560a9008560a9009560a900e3
:100d98000080fa00000006000000fa000221ef00bf
:100da80002a1a80007e1a8003108800000fc2f007c
:100db800008060000050a000300888006981a90008
:100dc80069e1a900410b800000ff2f00008060004e
:100dd8003000b300400b88006a21ef006c21ef005f
:100de8006921a80069e1a8006981a8000080fa00cb
:100df800000006000000fa00e7ff070083ff070075
:100e0800d0ff070035fe070045fe07000cfe07006f
:100e18000080fa00000006000200fa00f5ff070053
:100e28000000eb00000f78000000eb00000f7800d6
:100e3800110037001e00780000027800130020001f
:100e480012002000110020000000eb001fff070027
:100e58004019880000e823000100200086fd0700f3
:100e68008ec1a900000a20000100200082fd0700b1
:100e78008ec1a8001e0fe800f03f20009e007800f9
:0c0e8800808f5000ebff3400ffff3700ac
:020000040000fa
:100e9400560800007c10000080000000500800008c
:0c0ea400060000008000000000000000bc
:00000001FF
